{
    "abi": [
        {
            "type": "constructor",
            "inputs": [],
            "stateMutability": "nonpayable"
        },
        {
            "type": "receive",
            "stateMutability": "payable"
        },
        {
            "type": "function",
            "name": "BLAST",
            "inputs": [],
            "outputs": [
                {
                    "name": "",
                    "type": "address",
                    "internalType": "contract IBlast"
                }
            ],
            "stateMutability": "view"
        },
        {
            "type": "function",
            "name": "claimContractsGas",
            "inputs": [],
            "outputs": [],
            "stateMutability": "nonpayable"
        },
        {
            "type": "function",
            "name": "disperseEther",
            "inputs": [
                {
                    "name": "recipients",
                    "type": "address[]",
                    "internalType": "address[]"
                },
                {
                    "name": "values",
                    "type": "uint256[]",
                    "internalType": "uint256[]"
                }
            ],
            "outputs": [],
            "stateMutability": "payable"
        },
        {
            "type": "function",
            "name": "disperseToken",
            "inputs": [
                {
                    "name": "token",
                    "type": "address",
                    "internalType": "contract IERC20"
                },
                {
                    "name": "recipients",
                    "type": "address[]",
                    "internalType": "address[]"
                },
                {
                    "name": "values",
                    "type": "uint256[]",
                    "internalType": "uint256[]"
                }
            ],
            "outputs": [],
            "stateMutability": "nonpayable"
        },
        {
            "type": "function",
            "name": "withdraw",
            "inputs": [
                {
                    "name": "token",
                    "type": "address",
                    "internalType": "address"
                }
            ],
            "outputs": [],
            "stateMutability": "nonpayable"
        }
    ],
    "bytecode": {
        "object": "0x60a060405234801561001057600080fd5b507343000000000000000000000000000000000000026001600160a01b0316634e606c476040518163ffffffff1660e01b8152600401600060405180830381600087803b15801561006057600080fd5b505af1158015610074573d6000803e3d6000fd5b505050507343000000000000000000000000000000000000026001600160a01b0316637114177a6040518163ffffffff1660e01b8152600401600060405180830381600087803b1580156100c757600080fd5b505af11580156100db573d6000803e3d6000fd5b505033608052505060805161089561010560003960008181610106015261025d01526108956000f3fe60806040526004361061004e5760003560e01c806351cff8d91461005a57806374eb1c651461007c57806397d7577614610091578063c73a2d60146100c8578063e63d38ed146100e857600080fd5b3661005557005b600080fd5b34801561006657600080fd5b5061007a610075366004610586565b6100fb565b005b34801561008857600080fd5b5061007a610252565b34801561009d57600080fd5b506100ac6002604360981b0181565b6040516001600160a01b03909116815260200160405180910390f35b3480156100d457600080fd5b5061007a6100e33660046106ec565b6102f5565b61007a6100f6366004610762565b6104a8565b336001600160a01b037f0000000000000000000000000000000000000000000000000000000000000000161461013057600080fd5b6001600160a01b03811661016e5760405133904780156108fc02916000818181858888f1935050505015801561016a573d6000803e3d6000fd5b5050565b6040516370a0823160e01b81523060048201526001600160a01b0382169063a9059cbb90339083906370a0823190602401602060405180830381865afa1580156101bc573d6000803e3d6000fd5b505050506040513d601f19601f820116820180604052508101906101e091906107c6565b6040516001600160e01b031960e085901b1681526001600160a01b03909216600483015260248201526044016020604051808303816000875af115801561022b573d6000803e3d6000fd5b505050506040513d601f19601f8201168201806040525081019061016a91906107df565b50565b336001600160a01b037f0000000000000000000000000000000000000000000000000000000000000000161461028757600080fd5b604051634aa7d2f760e11b81523060048201523360248201526002604360981b019063954fa5ee906044016020604051808303816000875af11580156102d1573d6000803e3d6000fd5b505050506040513d601f19601f8201168201806040525081019061024f91906107c6565b805182511461030357600080fd5b6000805b835181101561033f5782818151811061032257610322610801565b602002602001015182610335919061082d565b9150600101610307565b506040516323b872dd60e01b8152336004820152306024820152604481018290526001600160a01b038516906323b872dd906064016020604051808303816000875af1158015610393573d6000803e3d6000fd5b505050506040513d601f19601f820116820180604052508101906103b791906107df565b6103c057600080fd5b60005b83518110156104a157846001600160a01b031663a9059cbb8583815181106103ed576103ed610801565b602002602001015185848151811061040757610407610801565b60200260200101516040518363ffffffff1660e01b81526004016104409291906001600160a01b03929092168252602082015260400190565b6020604051808303816000875af115801561045f573d6000803e3d6000fd5b505050506040513d601f19601f8201168201806040525081019061048391906107df565b61048c57600080fd5b6001018061049981610846565b9150506103c3565b5050505050565b80518251146104b657600080fd5b6000805b835181101561055e578281815181106104d5576104d5610801565b6020026020010151826104e8919061082d565b91508381815181106104fc576104fc610801565b60200260200101516001600160a01b03166108fc84838151811061052257610522610801565b60200260200101519081150290604051600060405180830381858888f19350505050158015610555573d6000803e3d6000fd5b506001016104ba565b508034101561056c57600080fd5b505050565b6001600160a01b038116811461024f57600080fd5b60006020828403121561059857600080fd5b81356105a381610571565b9392505050565b634e487b7160e01b600052604160045260246000fd5b604051601f8201601f1916810167ffffffffffffffff811182821017156105e9576105e96105aa565b604052919050565b600067ffffffffffffffff82111561060b5761060b6105aa565b5060051b60200190565b600082601f83011261062657600080fd5b8135602061063b610636836105f1565b6105c0565b8083825260208201915060208460051b87010193508684111561065d57600080fd5b602086015b8481101561068257803561067581610571565b8352918301918301610662565b509695505050505050565b600082601f83011261069e57600080fd5b813560206106ae610636836105f1565b8083825260208201915060208460051b8701019350868411156106d057600080fd5b602086015b8481101561068257803583529183019183016106d5565b60008060006060848603121561070157600080fd5b833561070c81610571565b9250602084013567ffffffffffffffff8082111561072957600080fd5b61073587838801610615565b9350604086013591508082111561074b57600080fd5b506107588682870161068d565b9150509250925092565b6000806040838503121561077557600080fd5b823567ffffffffffffffff8082111561078d57600080fd5b61079986838701610615565b935060208501359150808211156107af57600080fd5b506107bc8582860161068d565b9150509250929050565b6000602082840312156107d857600080fd5b5051919050565b6000602082840312156107f157600080fd5b815180151581146105a357600080fd5b634e487b7160e01b600052603260045260246000fd5b634e487b7160e01b600052601160045260246000fd5b8082018082111561084057610840610817565b92915050565b60006001820161085857610858610817565b506001019056fea26469706673582212203f17450a432cd806b92fe63b22e116bf0760a15eb5c453c1b9076166d8c5f24f64736f6c63430008160033",
        "linkReferences": {}
    },
    "methodIdentifiers": {
        "BLAST()": "97d75776",
        "claimContractsGas()": "74eb1c65",
        "disperseEther(address[],uint256[])": "e63d38ed",
        "disperseToken(address,address[],uint256[])": "c73a2d60",
        "withdraw(address)": "51cff8d9"
    },
    "id": 0
}